{
  "_format": "hh-sol-artifact-1",
  "contractName": "GenisPass",
  "sourceName": "contracts/GenisPass.sol",
  "abi": [
    {
      "inputs": [],
      "stateMutability": "nonpayable",
      "type": "constructor"
    },
    {
      "anonymous": false,
      "inputs": [
        {
          "indexed": true,
          "internalType": "address",
          "name": "owner",
          "type": "address"
        },
        {
          "indexed": true,
          "internalType": "address",
          "name": "approved",
          "type": "address"
        },
        {
          "indexed": true,
          "internalType": "uint256",
          "name": "tokenId",
          "type": "uint256"
        }
      ],
      "name": "Approval",
      "type": "event"
    },
    {
      "anonymous": false,
      "inputs": [
        {
          "indexed": true,
          "internalType": "address",
          "name": "owner",
          "type": "address"
        },
        {
          "indexed": true,
          "internalType": "address",
          "name": "operator",
          "type": "address"
        },
        {
          "indexed": false,
          "internalType": "bool",
          "name": "approved",
          "type": "bool"
        }
      ],
      "name": "ApprovalForAll",
      "type": "event"
    },
    {
      "anonymous": false,
      "inputs": [
        {
          "indexed": true,
          "internalType": "address",
          "name": "previousOwner",
          "type": "address"
        },
        {
          "indexed": true,
          "internalType": "address",
          "name": "newOwner",
          "type": "address"
        }
      ],
      "name": "OwnershipTransferred",
      "type": "event"
    },
    {
      "anonymous": false,
      "inputs": [
        {
          "indexed": true,
          "internalType": "address",
          "name": "from",
          "type": "address"
        },
        {
          "indexed": true,
          "internalType": "address",
          "name": "to",
          "type": "address"
        },
        {
          "indexed": true,
          "internalType": "uint256",
          "name": "tokenId",
          "type": "uint256"
        }
      ],
      "name": "Transfer",
      "type": "event"
    },
    {
      "inputs": [],
      "name": "DISCOUNT_PRICE",
      "outputs": [
        {
          "internalType": "uint256",
          "name": "",
          "type": "uint256"
        }
      ],
      "stateMutability": "view",
      "type": "function"
    },
    {
      "inputs": [],
      "name": "MAX_SUPPLY",
      "outputs": [
        {
          "internalType": "uint256",
          "name": "",
          "type": "uint256"
        }
      ],
      "stateMutability": "view",
      "type": "function"
    },
    {
      "inputs": [],
      "name": "MINT_PRICE",
      "outputs": [
        {
          "internalType": "uint256",
          "name": "",
          "type": "uint256"
        }
      ],
      "stateMutability": "view",
      "type": "function"
    },
    {
      "inputs": [
        {
          "internalType": "address[]",
          "name": "addresses",
          "type": "address[]"
        }
      ],
      "name": "addToDiscountList",
      "outputs": [],
      "stateMutability": "nonpayable",
      "type": "function"
    },
    {
      "inputs": [
        {
          "internalType": "address",
          "name": "to",
          "type": "address"
        },
        {
          "internalType": "uint256",
          "name": "tokenId",
          "type": "uint256"
        }
      ],
      "name": "approve",
      "outputs": [],
      "stateMutability": "nonpayable",
      "type": "function"
    },
    {
      "inputs": [
        {
          "internalType": "address",
          "name": "owner",
          "type": "address"
        }
      ],
      "name": "balanceOf",
      "outputs": [
        {
          "internalType": "uint256",
          "name": "",
          "type": "uint256"
        }
      ],
      "stateMutability": "view",
      "type": "function"
    },
    {
      "inputs": [
        {
          "internalType": "address",
          "name": "",
          "type": "address"
        }
      ],
      "name": "discountList",
      "outputs": [
        {
          "internalType": "bool",
          "name": "",
          "type": "bool"
        }
      ],
      "stateMutability": "view",
      "type": "function"
    },
    {
      "inputs": [
        {
          "internalType": "uint256",
          "name": "tokenId",
          "type": "uint256"
        }
      ],
      "name": "getApproved",
      "outputs": [
        {
          "internalType": "address",
          "name": "",
          "type": "address"
        }
      ],
      "stateMutability": "view",
      "type": "function"
    },
    {
      "inputs": [
        {
          "internalType": "address",
          "name": "owner",
          "type": "address"
        },
        {
          "internalType": "address",
          "name": "operator",
          "type": "address"
        }
      ],
      "name": "isApprovedForAll",
      "outputs": [
        {
          "internalType": "bool",
          "name": "",
          "type": "bool"
        }
      ],
      "stateMutability": "view",
      "type": "function"
    },
    {
      "inputs": [
        {
          "internalType": "address",
          "name": "wallet",
          "type": "address"
        }
      ],
      "name": "isEligibleForDiscount",
      "outputs": [
        {
          "internalType": "bool",
          "name": "",
          "type": "bool"
        }
      ],
      "stateMutability": "view",
      "type": "function"
    },
    {
      "inputs": [],
      "name": "mint",
      "outputs": [
        {
          "internalType": "uint256",
          "name": "",
          "type": "uint256"
        }
      ],
      "stateMutability": "payable",
      "type": "function"
    },
    {
      "inputs": [],
      "name": "mintDiscounted",
      "outputs": [
        {
          "internalType": "uint256",
          "name": "",
          "type": "uint256"
        }
      ],
      "stateMutability": "payable",
      "type": "function"
    },
    {
      "inputs": [],
      "name": "name",
      "outputs": [
        {
          "internalType": "string",
          "name": "",
          "type": "string"
        }
      ],
      "stateMutability": "view",
      "type": "function"
    },
    {
      "inputs": [],
      "name": "owner",
      "outputs": [
        {
          "internalType": "address",
          "name": "",
          "type": "address"
        }
      ],
      "stateMutability": "view",
      "type": "function"
    },
    {
      "inputs": [
        {
          "internalType": "uint256",
          "name": "tokenId",
          "type": "uint256"
        }
      ],
      "name": "ownerOf",
      "outputs": [
        {
          "internalType": "address",
          "name": "",
          "type": "address"
        }
      ],
      "stateMutability": "view",
      "type": "function"
    },
    {
      "inputs": [],
      "name": "remainingSupply",
      "outputs": [
        {
          "internalType": "uint256",
          "name": "",
          "type": "uint256"
        }
      ],
      "stateMutability": "view",
      "type": "function"
    },
    {
      "inputs": [
        {
          "internalType": "address[]",
          "name": "addresses",
          "type": "address[]"
        }
      ],
      "name": "removeFromDiscountList",
      "outputs": [],
      "stateMutability": "nonpayable",
      "type": "function"
    },
    {
      "inputs": [],
      "name": "renounceOwnership",
      "outputs": [],
      "stateMutability": "nonpayable",
      "type": "function"
    },
    {
      "inputs": [
        {
          "internalType": "address",
          "name": "from",
          "type": "address"
        },
        {
          "internalType": "address",
          "name": "to",
          "type": "address"
        },
        {
          "internalType": "uint256",
          "name": "tokenId",
          "type": "uint256"
        }
      ],
      "name": "safeTransferFrom",
      "outputs": [],
      "stateMutability": "nonpayable",
      "type": "function"
    },
    {
      "inputs": [
        {
          "internalType": "address",
          "name": "from",
          "type": "address"
        },
        {
          "internalType": "address",
          "name": "to",
          "type": "address"
        },
        {
          "internalType": "uint256",
          "name": "tokenId",
          "type": "uint256"
        },
        {
          "internalType": "bytes",
          "name": "data",
          "type": "bytes"
        }
      ],
      "name": "safeTransferFrom",
      "outputs": [],
      "stateMutability": "nonpayable",
      "type": "function"
    },
    {
      "inputs": [
        {
          "internalType": "address",
          "name": "operator",
          "type": "address"
        },
        {
          "internalType": "bool",
          "name": "approved",
          "type": "bool"
        }
      ],
      "name": "setApprovalForAll",
      "outputs": [],
      "stateMutability": "nonpayable",
      "type": "function"
    },
    {
      "inputs": [
        {
          "internalType": "bytes4",
          "name": "interfaceId",
          "type": "bytes4"
        }
      ],
      "name": "supportsInterface",
      "outputs": [
        {
          "internalType": "bool",
          "name": "",
          "type": "bool"
        }
      ],
      "stateMutability": "view",
      "type": "function"
    },
    {
      "inputs": [],
      "name": "symbol",
      "outputs": [
        {
          "internalType": "string",
          "name": "",
          "type": "string"
        }
      ],
      "stateMutability": "view",
      "type": "function"
    },
    {
      "inputs": [
        {
          "internalType": "uint256",
          "name": "tokenId",
          "type": "uint256"
        }
      ],
      "name": "tokenURI",
      "outputs": [
        {
          "internalType": "string",
          "name": "",
          "type": "string"
        }
      ],
      "stateMutability": "view",
      "type": "function"
    },
    {
      "inputs": [],
      "name": "totalSupply",
      "outputs": [
        {
          "internalType": "uint256",
          "name": "",
          "type": "uint256"
        }
      ],
      "stateMutability": "view",
      "type": "function"
    },
    {
      "inputs": [
        {
          "internalType": "address",
          "name": "from",
          "type": "address"
        },
        {
          "internalType": "address",
          "name": "to",
          "type": "address"
        },
        {
          "internalType": "uint256",
          "name": "tokenId",
          "type": "uint256"
        }
      ],
      "name": "transferFrom",
      "outputs": [],
      "stateMutability": "nonpayable",
      "type": "function"
    },
    {
      "inputs": [
        {
          "internalType": "address",
          "name": "newOwner",
          "type": "address"
        }
      ],
      "name": "transferOwnership",
      "outputs": [],
      "stateMutability": "nonpayable",
      "type": "function"
    },
    {
      "inputs": [],
      "name": "withdraw",
      "outputs": [],
      "stateMutability": "nonpayable",
      "type": "function"
    }
  ],
  "bytecode": "0x60806040523480156200001157600080fd5b506040518060400160405280600c81526020017f47454e49534149205061737300000000000000000000000000000000000000008152506040518060400160405280600581526020017f47454e495300000000000000000000000000000000000000000000000000000081525081600090816200008f919062000412565b508060019081620000a1919062000412565b505050620000c4620000b8620000ca60201b60201c565b620000d260201b60201c565b620004f9565b600033905090565b6000600660009054906101000a900473ffffffffffffffffffffffffffffffffffffffff16905081600660006101000a81548173ffffffffffffffffffffffffffffffffffffffff021916908373ffffffffffffffffffffffffffffffffffffffff1602179055508173ffffffffffffffffffffffffffffffffffffffff168173ffffffffffffffffffffffffffffffffffffffff167f8be0079c531659141344cd1fd0a4f28419497f9722a3daafe3b4186f6b6457e060405160405180910390a35050565b600081519050919050565b7f4e487b7100000000000000000000000000000000000000000000000000000000600052604160045260246000fd5b7f4e487b7100000000000000000000000000000000000000000000000000000000600052602260045260246000fd5b600060028204905060018216806200021a57607f821691505b60208210810362000230576200022f620001d2565b5b50919050565b60008190508160005260206000209050919050565b60006020601f8301049050919050565b600082821b905092915050565b6000600883026200029a7fffffffffffffffffffffffffffffffffffffffffffffffffffffffffffffffff826200025b565b620002a686836200025b565b95508019841693508086168417925050509392505050565b6000819050919050565b6000819050919050565b6000620002f3620002ed620002e784620002be565b620002c8565b620002be565b9050919050565b6000819050919050565b6200030f83620002d2565b620003276200031e82620002fa565b84845462000268565b825550505050565b600090565b6200033e6200032f565b6200034b81848462000304565b505050565b5b8181101562000373576200036760008262000334565b60018101905062000351565b5050565b601f821115620003c2576200038c8162000236565b62000397846200024b565b81016020851015620003a7578190505b620003bf620003b6856200024b565b83018262000350565b50505b505050565b600082821c905092915050565b6000620003e760001984600802620003c7565b1980831691505092915050565b6000620004028383620003d4565b9150826002028217905092915050565b6200041d8262000198565b67ffffffffffffffff811115620004395762000438620001a3565b5b62000445825462000201565b6200045282828562000377565b600060209050601f8311600181146200048a576000841562000475578287015190505b620004818582620003f4565b865550620004f1565b601f1984166200049a8662000236565b60005b82811015620004c4578489015182556001820191506020850194506020810190506200049d565b86831015620004e45784890151620004e0601f891682620003d4565b8355505b6001600288020188555050505b505050505050565b6133d180620005096000396000f3fe6080604052600436106101b75760003560e01c80636352211e116100ec578063b88d4fde1161008a578063da0239a611610064578063da0239a6146105e0578063dc0b2ff41461060b578063e985e9c514610648578063f2fde38b14610685576101b7565b8063b88d4fde1461054f578063c002d23d14610578578063c87b56dd146105a3576101b7565b80638da5cb5b116100c65780638da5cb5b1461049357806395d89b41146104be578063961cb361146104e9578063a22cb46514610526576101b7565b80636352211e1461040257806370a082311461043f578063715018a61461047c576101b7565b806323b872dd116101595780633ccfd60b116101335780633ccfd60b1461037b57806342842e0e1461039257806348437de0146103bb57806355515db0146103d9576101b7565b806323b872dd146102fe5780632dbb71e31461032757806332cb6b0c14610350576101b7565b8063081812fc11610195578063081812fc1461024f578063095ea7b31461028c5780631249c58b146102b557806318160ddd146102d3576101b7565b806301ffc9a7146101bc578063057707a0146101f957806306fdde0314610224575b600080fd5b3480156101c857600080fd5b506101e360048036038101906101de9190612304565b6106ae565b6040516101f0919061234c565b60405180910390f35b34801561020557600080fd5b5061020e610790565b60405161021b9190612380565b60405180910390f35b34801561023057600080fd5b5061023961079b565b604051610246919061242b565b60405180910390f35b34801561025b57600080fd5b5061027660048036038101906102719190612479565b61082d565b60405161028391906124e7565b60405180910390f35b34801561029857600080fd5b506102b360048036038101906102ae919061252e565b610873565b005b6102bd61098a565b6040516102ca9190612380565b60405180910390f35b3480156102df57600080fd5b506102e8610ab6565b6040516102f59190612380565b60405180910390f35b34801561030a57600080fd5b506103256004803603810190610320919061256e565b610ac7565b005b34801561033357600080fd5b5061034e60048036038101906103499190612626565b610b27565b005b34801561035c57600080fd5b50610365610bd4565b6040516103729190612380565b60405180910390f35b34801561038757600080fd5b50610390610bdb565b005b34801561039e57600080fd5b506103b960048036038101906103b4919061256e565b610c39565b005b6103c3610c59565b6040516103d09190612380565b60405180910390f35b3480156103e557600080fd5b5061040060048036038101906103fb9190612626565b610e11565b005b34801561040e57600080fd5b5061042960048036038101906104249190612479565b610ebe565b60405161043691906124e7565b60405180910390f35b34801561044b57600080fd5b5061046660048036038101906104619190612673565b610f44565b6040516104739190612380565b60405180910390f35b34801561048857600080fd5b50610491610ffb565b005b34801561049f57600080fd5b506104a861100f565b6040516104b591906124e7565b60405180910390f35b3480156104ca57600080fd5b506104d3611039565b6040516104e0919061242b565b60405180910390f35b3480156104f557600080fd5b50610510600480360381019061050b9190612673565b6110cb565b60405161051d919061234c565b60405180910390f35b34801561053257600080fd5b5061054d600480360381019061054891906126cc565b611121565b005b34801561055b57600080fd5b506105766004803603810190610571919061283c565b611137565b005b34801561058457600080fd5b5061058d611199565b60405161059a9190612380565b60405180910390f35b3480156105af57600080fd5b506105ca60048036038101906105c59190612479565b6111a4565b6040516105d7919061242b565b60405180910390f35b3480156105ec57600080fd5b506105f561120c565b6040516106029190612380565b60405180910390f35b34801561061757600080fd5b50610632600480360381019061062d9190612673565b61122b565b60405161063f919061234c565b60405180910390f35b34801561065457600080fd5b5061066f600480360381019061066a91906128bf565b61124b565b60405161067c919061234c565b60405180910390f35b34801561069157600080fd5b506106ac60048036038101906106a79190612673565b6112df565b005b60007f80ac58cd000000000000000000000000000000000000000000000000000000007bffffffffffffffffffffffffffffffffffffffffffffffffffffffff1916827bffffffffffffffffffffffffffffffffffffffffffffffffffffffff1916148061077957507f5b5e139f000000000000000000000000000000000000000000000000000000007bffffffffffffffffffffffffffffffffffffffffffffffffffffffff1916827bffffffffffffffffffffffffffffffffffffffffffffffffffffffff1916145b80610789575061078882611362565b5b9050919050565b6611c37937e0800081565b6060600080546107aa9061292e565b80601f01602080910402602001604051908101604052809291908181526020018280546107d69061292e565b80156108235780601f106107f857610100808354040283529160200191610823565b820191906000526020600020905b81548152906001019060200180831161080657829003601f168201915b5050505050905090565b6000610838826113cc565b6004600083815260200190815260200160002060009054906101000a900473ffffffffffffffffffffffffffffffffffffffff169050919050565b600061087e82610ebe565b90508073ffffffffffffffffffffffffffffffffffffffff168373ffffffffffffffffffffffffffffffffffffffff16036108ee576040517f08c379a00000000000000000000000000000000000000000000000000000000081526004016108e5906129d1565b60405180910390fd5b8073ffffffffffffffffffffffffffffffffffffffff1661090d611417565b73ffffffffffffffffffffffffffffffffffffffff16148061093c575061093b81610936611417565b61124b565b5b61097b576040517f08c379a000000000000000000000000000000000000000000000000000000000815260040161097290612a63565b60405180910390fd5b610985838361141f565b505050565b6000620f424061099a60076114d8565b106109da576040517f08c379a00000000000000000000000000000000000000000000000000000000081526004016109d190612acf565b60405180910390fd5b6611c37937e08000341015610a24576040517f08c379a0000000000000000000000000000000000000000000000000000000008152600401610a1b90612b3b565b60405180910390fd5b610a2e60076114e6565b6000610a3a60076114d8565b9050610a4633826114fc565b6611c37937e08000341115610aaf573373ffffffffffffffffffffffffffffffffffffffff166108fc6611c37937e0800034610a829190612b8a565b9081150290604051600060405180830381858888f19350505050158015610aad573d6000803e3d6000fd5b505b8091505090565b6000610ac260076114d8565b905090565b610ad8610ad2611417565b8261151a565b610b17576040517f08c379a0000000000000000000000000000000000000000000000000000000008152600401610b0e90612c30565b60405180910390fd5b610b228383836115af565b505050565b610b2f6118a8565b60005b82829050811015610bcf57600060086000858585818110610b5657610b55612c50565b5b9050602002016020810190610b6b9190612673565b73ffffffffffffffffffffffffffffffffffffffff1673ffffffffffffffffffffffffffffffffffffffff16815260200190815260200160002060006101000a81548160ff0219169083151502179055508080610bc790612c7f565b915050610b32565b505050565b620f424081565b610be36118a8565b6000479050610bf061100f565b73ffffffffffffffffffffffffffffffffffffffff166108fc829081150290604051600060405180830381858888f19350505050158015610c35573d6000803e3d6000fd5b5050565b610c5483838360405180602001604052806000815250611137565b505050565b6000600860003373ffffffffffffffffffffffffffffffffffffffff1673ffffffffffffffffffffffffffffffffffffffff16815260200190815260200160002060009054906101000a900460ff16610ce7576040517f08c379a0000000000000000000000000000000000000000000000000000000008152600401610cde90612d13565b60405180910390fd5b620f4240610cf560076114d8565b10610d35576040517f08c379a0000000000000000000000000000000000000000000000000000000008152600401610d2c90612acf565b60405180910390fd5b6611c37937e08000341015610d7f576040517f08c379a0000000000000000000000000000000000000000000000000000000008152600401610d7690612b3b565b60405180910390fd5b610d8960076114e6565b6000610d9560076114d8565b9050610da133826114fc565b6611c37937e08000341115610e0a573373ffffffffffffffffffffffffffffffffffffffff166108fc6611c37937e0800034610ddd9190612b8a565b9081150290604051600060405180830381858888f19350505050158015610e08573d6000803e3d6000fd5b505b8091505090565b610e196118a8565b60005b82829050811015610eb957600160086000858585818110610e4057610e3f612c50565b5b9050602002016020810190610e559190612673565b73ffffffffffffffffffffffffffffffffffffffff1673ffffffffffffffffffffffffffffffffffffffff16815260200190815260200160002060006101000a81548160ff0219169083151502179055508080610eb190612c7f565b915050610e1c565b505050565b600080610eca83611926565b9050600073ffffffffffffffffffffffffffffffffffffffff168173ffffffffffffffffffffffffffffffffffffffff1603610f3b576040517f08c379a0000000000000000000000000000000000000000000000000000000008152600401610f3290612d7f565b60405180910390fd5b80915050919050565b60008073ffffffffffffffffffffffffffffffffffffffff168273ffffffffffffffffffffffffffffffffffffffff1603610fb4576040517f08c379a0000000000000000000000000000000000000000000000000000000008152600401610fab90612e11565b60405180910390fd5b600360008373ffffffffffffffffffffffffffffffffffffffff1673ffffffffffffffffffffffffffffffffffffffff168152602001908152602001600020549050919050565b6110036118a8565b61100d6000611963565b565b6000600660009054906101000a900473ffffffffffffffffffffffffffffffffffffffff16905090565b6060600180546110489061292e565b80601f01602080910402602001604051908101604052809291908181526020018280546110749061292e565b80156110c15780601f10611096576101008083540402835291602001916110c1565b820191906000526020600020905b8154815290600101906020018083116110a457829003601f168201915b5050505050905090565b6000600860008373ffffffffffffffffffffffffffffffffffffffff1673ffffffffffffffffffffffffffffffffffffffff16815260200190815260200160002060009054906101000a900460ff169050919050565b61113361112c611417565b8383611a29565b5050565b611148611142611417565b8361151a565b611187576040517f08c379a000000000000000000000000000000000000000000000000000000000815260040161117e90612c30565b60405180910390fd5b61119384848484611b95565b50505050565b6611c37937e0800081565b60606111af826113cc565b60006111b9611bf1565b905060008151116111d95760405180602001604052806000815250611204565b806111e384611c08565b6040516020016111f4929190612e6d565b6040516020818303038152906040525b915050919050565b600061121860076114d8565b620f42406112269190612b8a565b905090565b60086020528060005260406000206000915054906101000a900460ff1681565b6000600560008473ffffffffffffffffffffffffffffffffffffffff1673ffffffffffffffffffffffffffffffffffffffff16815260200190815260200160002060008373ffffffffffffffffffffffffffffffffffffffff1673ffffffffffffffffffffffffffffffffffffffff16815260200190815260200160002060009054906101000a900460ff16905092915050565b6112e76118a8565b600073ffffffffffffffffffffffffffffffffffffffff168173ffffffffffffffffffffffffffffffffffffffff1603611356576040517f08c379a000000000000000000000000000000000000000000000000000000000815260040161134d90612f03565b60405180910390fd5b61135f81611963565b50565b60007f01ffc9a7000000000000000000000000000000000000000000000000000000007bffffffffffffffffffffffffffffffffffffffffffffffffffffffff1916827bffffffffffffffffffffffffffffffffffffffffffffffffffffffff1916149050919050565b6113d581611cd6565b611414576040517f08c379a000000000000000000000000000000000000000000000000000000000815260040161140b90612d7f565b60405180910390fd5b50565b600033905090565b816004600083815260200190815260200160002060006101000a81548173ffffffffffffffffffffffffffffffffffffffff021916908373ffffffffffffffffffffffffffffffffffffffff160217905550808273ffffffffffffffffffffffffffffffffffffffff1661149283610ebe565b73ffffffffffffffffffffffffffffffffffffffff167f8c5be1e5ebec7d5bd14f71427d1e84f3dd0314c0f7b2291e5b200ac8c7c3b92560405160405180910390a45050565b600081600001549050919050565b6001816000016000828254019250508190555050565b611516828260405180602001604052806000815250611d17565b5050565b60008061152683610ebe565b90508073ffffffffffffffffffffffffffffffffffffffff168473ffffffffffffffffffffffffffffffffffffffff1614806115685750611567818561124b565b5b806115a657508373ffffffffffffffffffffffffffffffffffffffff1661158e8461082d565b73ffffffffffffffffffffffffffffffffffffffff16145b91505092915050565b8273ffffffffffffffffffffffffffffffffffffffff166115cf82610ebe565b73ffffffffffffffffffffffffffffffffffffffff1614611625576040517f08c379a000000000000000000000000000000000000000000000000000000000815260040161161c90612f95565b60405180910390fd5b600073ffffffffffffffffffffffffffffffffffffffff168273ffffffffffffffffffffffffffffffffffffffff1603611694576040517f08c379a000000000000000000000000000000000000000000000000000000000815260040161168b90613027565b60405180910390fd5b6116a18383836001611d72565b8273ffffffffffffffffffffffffffffffffffffffff166116c182610ebe565b73ffffffffffffffffffffffffffffffffffffffff1614611717576040517f08c379a000000000000000000000000000000000000000000000000000000000815260040161170e90612f95565b60405180910390fd5b6004600082815260200190815260200160002060006101000a81549073ffffffffffffffffffffffffffffffffffffffff02191690556001600360008573ffffffffffffffffffffffffffffffffffffffff1673ffffffffffffffffffffffffffffffffffffffff168152602001908152602001600020600082825403925050819055506001600360008473ffffffffffffffffffffffffffffffffffffffff1673ffffffffffffffffffffffffffffffffffffffff16815260200190815260200160002060008282540192505081905550816002600083815260200190815260200160002060006101000a81548173ffffffffffffffffffffffffffffffffffffffff021916908373ffffffffffffffffffffffffffffffffffffffff160217905550808273ffffffffffffffffffffffffffffffffffffffff168473ffffffffffffffffffffffffffffffffffffffff167fddf252ad1be2c89b69c2b068fc378daa952ba7f163c4a11628f55a4df523b3ef60405160405180910390a46118a38383836001611d78565b505050565b6118b0611417565b73ffffffffffffffffffffffffffffffffffffffff166118ce61100f565b73ffffffffffffffffffffffffffffffffffffffff1614611924576040517f08c379a000000000000000000000000000000000000000000000000000000000815260040161191b90613093565b60405180910390fd5b565b60006002600083815260200190815260200160002060009054906101000a900473ffffffffffffffffffffffffffffffffffffffff169050919050565b6000600660009054906101000a900473ffffffffffffffffffffffffffffffffffffffff16905081600660006101000a81548173ffffffffffffffffffffffffffffffffffffffff021916908373ffffffffffffffffffffffffffffffffffffffff1602179055508173ffffffffffffffffffffffffffffffffffffffff168173ffffffffffffffffffffffffffffffffffffffff167f8be0079c531659141344cd1fd0a4f28419497f9722a3daafe3b4186f6b6457e060405160405180910390a35050565b8173ffffffffffffffffffffffffffffffffffffffff168373ffffffffffffffffffffffffffffffffffffffff1603611a97576040517f08c379a0000000000000000000000000000000000000000000000000000000008152600401611a8e906130ff565b60405180910390fd5b80600560008573ffffffffffffffffffffffffffffffffffffffff1673ffffffffffffffffffffffffffffffffffffffff16815260200190815260200160002060008473ffffffffffffffffffffffffffffffffffffffff1673ffffffffffffffffffffffffffffffffffffffff16815260200190815260200160002060006101000a81548160ff0219169083151502179055508173ffffffffffffffffffffffffffffffffffffffff168373ffffffffffffffffffffffffffffffffffffffff167f17307eab39ab6107e8899845ad3d59bd9653f200f220920489ca2b5937696c3183604051611b88919061234c565b60405180910390a3505050565b611ba08484846115af565b611bac84848484611d7e565b611beb576040517f08c379a0000000000000000000000000000000000000000000000000000000008152600401611be290613191565b60405180910390fd5b50505050565b606060405180602001604052806000815250905090565b606060006001611c1784611f05565b01905060008167ffffffffffffffff811115611c3657611c35612711565b5b6040519080825280601f01601f191660200182016040528015611c685781602001600182028036833780820191505090505b509050600082602001820190505b600115611ccb578080600190039150507f3031323334353637383961626364656600000000000000000000000000000000600a86061a8153600a8581611cbf57611cbe6131b1565b5b04945060008503611c76575b819350505050919050565b60008073ffffffffffffffffffffffffffffffffffffffff16611cf883611926565b73ffffffffffffffffffffffffffffffffffffffff1614159050919050565b611d218383612058565b611d2e6000848484611d7e565b611d6d576040517f08c379a0000000000000000000000000000000000000000000000000000000008152600401611d6490613191565b60405180910390fd5b505050565b50505050565b50505050565b6000611d9f8473ffffffffffffffffffffffffffffffffffffffff16612275565b15611ef8578373ffffffffffffffffffffffffffffffffffffffff1663150b7a02611dc8611417565b8786866040518563ffffffff1660e01b8152600401611dea9493929190613235565b6020604051808303816000875af1925050508015611e2657506040513d601f19601f82011682018060405250810190611e239190613296565b60015b611ea8573d8060008114611e56576040519150601f19603f3d011682016040523d82523d6000602084013e611e5b565b606091505b506000815103611ea0576040517f08c379a0000000000000000000000000000000000000000000000000000000008152600401611e9790613191565b60405180910390fd5b805181602001fd5b63150b7a0260e01b7bffffffffffffffffffffffffffffffffffffffffffffffffffffffff1916817bffffffffffffffffffffffffffffffffffffffffffffffffffffffff191614915050611efd565b600190505b949350505050565b600080600090507a184f03e93ff9f4daa797ed6e38ed64bf6a1f0100000000000000008310611f63577a184f03e93ff9f4daa797ed6e38ed64bf6a1f0100000000000000008381611f5957611f586131b1565b5b0492506040810190505b6d04ee2d6d415b85acef81000000008310611fa0576d04ee2d6d415b85acef81000000008381611f9657611f956131b1565b5b0492506020810190505b662386f26fc100008310611fcf57662386f26fc100008381611fc557611fc46131b1565b5b0492506010810190505b6305f5e1008310611ff8576305f5e1008381611fee57611fed6131b1565b5b0492506008810190505b612710831061201d576127108381612013576120126131b1565b5b0492506004810190505b606483106120405760648381612036576120356131b1565b5b0492506002810190505b600a831061204f576001810190505b80915050919050565b600073ffffffffffffffffffffffffffffffffffffffff168273ffffffffffffffffffffffffffffffffffffffff16036120c7576040517f08c379a00000000000000000000000000000000000000000000000000000000081526004016120be9061330f565b60405180910390fd5b6120d081611cd6565b15612110576040517f08c379a00000000000000000000000000000000000000000000000000000000081526004016121079061337b565b60405180910390fd5b61211e600083836001611d72565b61212781611cd6565b15612167576040517f08c379a000000000000000000000000000000000000000000000000000000000815260040161215e9061337b565b60405180910390fd5b6001600360008473ffffffffffffffffffffffffffffffffffffffff1673ffffffffffffffffffffffffffffffffffffffff16815260200190815260200160002060008282540192505081905550816002600083815260200190815260200160002060006101000a81548173ffffffffffffffffffffffffffffffffffffffff021916908373ffffffffffffffffffffffffffffffffffffffff160217905550808273ffffffffffffffffffffffffffffffffffffffff16600073ffffffffffffffffffffffffffffffffffffffff167fddf252ad1be2c89b69c2b068fc378daa952ba7f163c4a11628f55a4df523b3ef60405160405180910390a4612271600083836001611d78565b5050565b6000808273ffffffffffffffffffffffffffffffffffffffff163b119050919050565b6000604051905090565b600080fd5b600080fd5b60007fffffffff0000000000000000000000000000000000000000000000000000000082169050919050565b6122e1816122ac565b81146122ec57600080fd5b50565b6000813590506122fe816122d8565b92915050565b60006020828403121561231a576123196122a2565b5b6000612328848285016122ef565b91505092915050565b60008115159050919050565b61234681612331565b82525050565b6000602082019050612361600083018461233d565b92915050565b6000819050919050565b61237a81612367565b82525050565b60006020820190506123956000830184612371565b92915050565b600081519050919050565b600082825260208201905092915050565b60005b838110156123d55780820151818401526020810190506123ba565b60008484015250505050565b6000601f19601f8301169050919050565b60006123fd8261239b565b61240781856123a6565b93506124178185602086016123b7565b612420816123e1565b840191505092915050565b6000602082019050818103600083015261244581846123f2565b905092915050565b61245681612367565b811461246157600080fd5b50565b6000813590506124738161244d565b92915050565b60006020828403121561248f5761248e6122a2565b5b600061249d84828501612464565b91505092915050565b600073ffffffffffffffffffffffffffffffffffffffff82169050919050565b60006124d1826124a6565b9050919050565b6124e1816124c6565b82525050565b60006020820190506124fc60008301846124d8565b92915050565b61250b816124c6565b811461251657600080fd5b50565b60008135905061252881612502565b92915050565b60008060408385031215612545576125446122a2565b5b600061255385828601612519565b925050602061256485828601612464565b9150509250929050565b600080600060608486031215612587576125866122a2565b5b600061259586828701612519565b93505060206125a686828701612519565b92505060406125b786828701612464565b9150509250925092565b600080fd5b600080fd5b600080fd5b60008083601f8401126125e6576125e56125c1565b5b8235905067ffffffffffffffff811115612603576126026125c6565b5b60208301915083602082028301111561261f5761261e6125cb565b5b9250929050565b6000806020838503121561263d5761263c6122a2565b5b600083013567ffffffffffffffff81111561265b5761265a6122a7565b5b612667858286016125d0565b92509250509250929050565b600060208284031215612689576126886122a2565b5b600061269784828501612519565b91505092915050565b6126a981612331565b81146126b457600080fd5b50565b6000813590506126c6816126a0565b92915050565b600080604083850312156126e3576126e26122a2565b5b60006126f185828601612519565b9250506020612702858286016126b7565b9150509250929050565b600080fd5b7f4e487b7100000000000000000000000000000000000000000000000000000000600052604160045260246000fd5b612749826123e1565b810181811067ffffffffffffffff8211171561276857612767612711565b5b80604052505050565b600061277b612298565b90506127878282612740565b919050565b600067ffffffffffffffff8211156127a7576127a6612711565b5b6127b0826123e1565b9050602081019050919050565b82818337600083830152505050565b60006127df6127da8461278c565b612771565b9050828152602081018484840111156127fb576127fa61270c565b5b6128068482856127bd565b509392505050565b600082601f830112612823576128226125c1565b5b81356128338482602086016127cc565b91505092915050565b60008060008060808587031215612856576128556122a2565b5b600061286487828801612519565b945050602061287587828801612519565b935050604061288687828801612464565b925050606085013567ffffffffffffffff8111156128a7576128a66122a7565b5b6128b38782880161280e565b91505092959194509250565b600080604083850312156128d6576128d56122a2565b5b60006128e485828601612519565b92505060206128f585828601612519565b9150509250929050565b7f4e487b7100000000000000000000000000000000000000000000000000000000600052602260045260246000fd5b6000600282049050600182168061294657607f821691505b602082108103612959576129586128ff565b5b50919050565b7f4552433732313a20617070726f76616c20746f2063757272656e74206f776e6560008201527f7200000000000000000000000000000000000000000000000000000000000000602082015250565b60006129bb6021836123a6565b91506129c68261295f565b604082019050919050565b600060208201905081810360008301526129ea816129ae565b9050919050565b7f4552433732313a20617070726f76652063616c6c6572206973206e6f7420746f60008201527f6b656e206f776e6572206f7220617070726f76656420666f7220616c6c000000602082015250565b6000612a4d603d836123a6565b9150612a58826129f1565b604082019050919050565b60006020820190508181036000830152612a7c81612a40565b9050919050565b7f4d617820737570706c7920726561636865640000000000000000000000000000600082015250565b6000612ab96012836123a6565b9150612ac482612a83565b602082019050919050565b60006020820190508181036000830152612ae881612aac565b9050919050565b7f496e73756666696369656e74207061796d656e74000000000000000000000000600082015250565b6000612b256014836123a6565b9150612b3082612aef565b602082019050919050565b60006020820190508181036000830152612b5481612b18565b9050919050565b7f4e487b7100000000000000000000000000000000000000000000000000000000600052601160045260246000fd5b6000612b9582612367565b9150612ba083612367565b9250828203905081811115612bb857612bb7612b5b565b5b92915050565b7f4552433732313a2063616c6c6572206973206e6f7420746f6b656e206f776e6560008201527f72206f7220617070726f76656400000000000000000000000000000000000000602082015250565b6000612c1a602d836123a6565b9150612c2582612bbe565b604082019050919050565b60006020820190508181036000830152612c4981612c0d565b9050919050565b7f4e487b7100000000000000000000000000000000000000000000000000000000600052603260045260246000fd5b6000612c8a82612367565b91507fffffffffffffffffffffffffffffffffffffffffffffffffffffffffffffffff8203612cbc57612cbb612b5b565b5b600182019050919050565b7f4e6f7420656c696769626c6520666f7220646973636f756e7400000000000000600082015250565b6000612cfd6019836123a6565b9150612d0882612cc7565b602082019050919050565b60006020820190508181036000830152612d2c81612cf0565b9050919050565b7f4552433732313a20696e76616c696420746f6b656e2049440000000000000000600082015250565b6000612d696018836123a6565b9150612d7482612d33565b602082019050919050565b60006020820190508181036000830152612d9881612d5c565b9050919050565b7f4552433732313a2061646472657373207a65726f206973206e6f74206120766160008201527f6c6964206f776e65720000000000000000000000000000000000000000000000602082015250565b6000612dfb6029836123a6565b9150612e0682612d9f565b604082019050919050565b60006020820190508181036000830152612e2a81612dee565b9050919050565b600081905092915050565b6000612e478261239b565b612e518185612e31565b9350612e618185602086016123b7565b80840191505092915050565b6000612e798285612e3c565b9150612e858284612e3c565b91508190509392505050565b7f4f776e61626c653a206e6577206f776e657220697320746865207a65726f206160008201527f6464726573730000000000000000000000000000000000000000000000000000602082015250565b6000612eed6026836123a6565b9150612ef882612e91565b604082019050919050565b60006020820190508181036000830152612f1c81612ee0565b9050919050565b7f4552433732313a207472616e736665722066726f6d20696e636f72726563742060008201527f6f776e6572000000000000000000000000000000000000000000000000000000602082015250565b6000612f7f6025836123a6565b9150612f8a82612f23565b604082019050919050565b60006020820190508181036000830152612fae81612f72565b9050919050565b7f4552433732313a207472616e7366657220746f20746865207a65726f2061646460008201527f7265737300000000000000000000000000000000000000000000000000000000602082015250565b60006130116024836123a6565b915061301c82612fb5565b604082019050919050565b6000602082019050818103600083015261304081613004565b9050919050565b7f4f776e61626c653a2063616c6c6572206973206e6f7420746865206f776e6572600082015250565b600061307d6020836123a6565b915061308882613047565b602082019050919050565b600060208201905081810360008301526130ac81613070565b9050919050565b7f4552433732313a20617070726f766520746f2063616c6c657200000000000000600082015250565b60006130e96019836123a6565b91506130f4826130b3565b602082019050919050565b60006020820190508181036000830152613118816130dc565b9050919050565b7f4552433732313a207472616e7366657220746f206e6f6e20455243373231526560008201527f63656976657220696d706c656d656e7465720000000000000000000000000000602082015250565b600061317b6032836123a6565b91506131868261311f565b604082019050919050565b600060208201905081810360008301526131aa8161316e565b9050919050565b7f4e487b7100000000000000000000000000000000000000000000000000000000600052601260045260246000fd5b600081519050919050565b600082825260208201905092915050565b6000613207826131e0565b61321181856131eb565b93506132218185602086016123b7565b61322a816123e1565b840191505092915050565b600060808201905061324a60008301876124d8565b61325760208301866124d8565b6132646040830185612371565b818103606083015261327681846131fc565b905095945050505050565b600081519050613290816122d8565b92915050565b6000602082840312156132ac576132ab6122a2565b5b60006132ba84828501613281565b91505092915050565b7f4552433732313a206d696e7420746f20746865207a65726f2061646472657373600082015250565b60006132f96020836123a6565b9150613304826132c3565b602082019050919050565b60006020820190508181036000830152613328816132ec565b9050919050565b7f4552433732313a20746f6b656e20616c7265616479206d696e74656400000000600082015250565b6000613365601c836123a6565b91506133708261332f565b602082019050919050565b6000602082019050818103600083015261339481613358565b905091905056fea26469706673582212205b0a4b99d18d98cbc8c3576c96e803173734b397ce44d1d1504e53d07f2f0dd964736f6c63430008140033",
  "linkReferences": {},
  "deployedLinkReferences": {}
}